{
  "contractName": "Migrations",
  "abi": [
    {
      "inputs": [],
      "payable": false,
      "stateMutability": "nonpayable",
      "type": "constructor"
    },
    {
      "constant": true,
      "inputs": [],
      "name": "last_completed_migration",
      "outputs": [
        {
          "internalType": "uint256",
          "name": "",
          "type": "uint256"
        }
      ],
      "payable": false,
      "stateMutability": "view",
      "type": "function"
    },
    {
      "constant": true,
      "inputs": [],
      "name": "owner",
      "outputs": [
        {
          "internalType": "address",
          "name": "",
          "type": "address"
        }
      ],
      "payable": false,
      "stateMutability": "view",
      "type": "function"
    },
    {
      "constant": false,
      "inputs": [
        {
          "internalType": "uint256",
          "name": "completed",
          "type": "uint256"
        }
      ],
      "name": "setCompleted",
      "outputs": [],
      "payable": false,
      "stateMutability": "nonpayable",
      "type": "function"
    },
    {
      "constant": false,
      "inputs": [
        {
          "internalType": "address",
          "name": "new_address",
          "type": "address"
        }
      ],
      "name": "upgrade",
      "outputs": [],
      "payable": false,
      "stateMutability": "nonpayable",
      "type": "function"
    }
  ],
  "bytecode": "0x608060405234801561001057600080fd5b50600080546001600160a01b0319163317905561023f806100326000396000f3fe608060405234801561001057600080fd5b506004361061004c5760003560e01c80630900f01014610051578063445df0ac146100795780638da5cb5b14610093578063fdacd576146100b7575b600080fd5b6100776004803603602081101561006757600080fd5b50356001600160a01b03166100d4565b005b610081610186565b60408051918252519081900360200190f35b61009b61018c565b604080516001600160a01b039092168252519081900360200190f35b610077600480360360208110156100cd57600080fd5b503561019b565b6000546001600160a01b0316331461011d5760405162461bcd60e51b81526004018080602001828103825260218152602001806101ea6021913960400191505060405180910390fd5b6000819050806001600160a01b031663fdacd5766001546040518263ffffffff1660e01b815260040180828152602001915050600060405180830381600087803b15801561016a57600080fd5b505af115801561017e573d6000803e3d6000fd5b505050505050565b60015481565b6000546001600160a01b031681565b6000546001600160a01b031633146101e45760405162461bcd60e51b81526004018080602001828103825260218152602001806101ea6021913960400191505060405180910390fd5b60015556fe4f6e6c79206f776e65722063616e2063616c6c20746869732066756e6374696f6ea265627a7a723158205226ade7ec0a9e284fbf9e2c6f71028a0e03d33e25d142bcbb484caf4bbf044264736f6c63430005100032",
  "source": "// SPDX-License-Identifier: MIT\r\npragma solidity ^0.5.16;\r\n\r\ncontract Migrations {\r\n    address public owner;\r\n    uint public last_completed_migration;\r\n\r\n    constructor() public {\r\n        owner = msg.sender;\r\n    }\r\n\r\n    modifier restricted() {\r\n        require(msg.sender == owner, \"Only owner can call this function\");\r\n        _;\r\n    }\r\n\r\n    function setCompleted(uint completed) public restricted {\r\n        last_completed_migration = completed;\r\n    }\r\n\r\n    function upgrade(address new_address) public restricted {\r\n        Migrations upgraded = Migrations(new_address);\r\n        upgraded.setCompleted(last_completed_migration);\r\n    }\r\n}\r\n",
  "sourcePath": "C:\\Users\\Jia Huei Cheah\\repo\\eth-todo-list\\contracts\\Migrations.sol",
  "compiler": {
    "name": "solc",
    "version": "0.5.16+commit.9c3226ce.Emscripten.clang"
  },
  "schemaVersion": "3.4.16",
  "updatedAt": "2025-07-14T04:30:19.890Z",
  "networkType": "ethereum",
  "devdoc": {
    "methods": {}
  },
  "userdoc": {
    "methods": {}
  }
}